:020000040800F2
:1000000000800120353200088D3100088F31000852
:10001000913100089331000895310008000000007C
:100020000000000000000000000000009731000800
:1000300099310008000000009B3100089D31000844
:1000400085320008853200088532000885320008B4
:1000500085320008853200088532000885320008A4
:100060008532000885320008853200088532000894
:100070008532000885320008AD310008B93100082A
:100080008532000885320008853200080000000033
:1000900000000000000000000000000085320008A1
:1000A0008532000885320008853200088532000854
:1000B0008532000885320008853200088532000844
:1000C0008532000885320008853200088532000834
:1000D000C5310008853200088532000800000000A4
:1000E00085320008853200088532000800000000D3
:1000F0000000000000000000000000008532000841
:1001000000000000853200088532000885320008B2
:1001100000000000000000000000000000000000DF
:10012000D13100088532000885320008DD31000831
:100130008532000800000000000000000000000000
:1001400000000000000000000000000085320008F0
:1001500085320008853200088532000885320008A3
:100160008532000885320008000000000000000011
:10017000000000000000000000000000000000007F
:1001800000000000853200080000000000000000B0
:0401900085320008AC
:1001940010B5054C237833B9044B13B10448AFF3BD
:1001A40000800123237010BD7000002000000000B7
:1001B400B033000808B5034B1BB103490348AFF340
:1001C400008008BD0000000074000020B033000867
:1001D40053B94AB9002908BF00281CBF4FF0FF31AA
:1001E4004FF0FF3001F0F6B8ADF1080C6DE904CE24
:1001F40000F006F8DDF804E0DDE9022304B07047FE
:100204002DE9F0478C460D460446089E002B51D13B
:100214008A4217466DD9B2FA82FEBEF1000F0BD0A6
:10022400CEF1200C01FA0EF520FA0CFC02FA0EF7BE
:100234004CEA050C00FA0EF44FEA174A250CBCFBF5
:10024400FAF81FFA87F90AFB18CC45EA0C4508FBB3
:1002540009F3AB420AD9ED1908F1FF3280F023818A
:10026400AB4240F22081A8F102083D44ED1AA4B249
:10027400B5FBFAF00AFB105544EA054400FB09F902
:10028400A14509D9E41900F1FF3380F00A81A145A1
:1002940040F2078102383C44A4EB090440EA0840D8
:1002A4000021002E61D024FA0EF400233460736020
:1002B400BDE8F0878B4207D9002E54D0002186E890
:1002C40021000846BDE8F087B3FA83F1002940F025
:1002D4008E80AB4202D3824200F2FA80841A65EB2C
:1002E40003050120AC46002E3FD086E81010BDE87F
:1002F400F08712B90127B7FBF2F7B7FA87FEBEF110
:10030400000F34D1EB1B3A0C1FFA87FC0121B3FB1D
:10031400F2F8250C02FB183345EA03450CFB08F3FD
:10032400AB4207D9ED1908F1FF3002D2AB4200F21B
:10033400D1808046ED1AA3B2B5FBF2F002FB105552
:1003440043EA05440CFB00FCA44507D9E41900F179
:10035400FF3302D2A44500F2B8801846A4EB0C0483
:1003640040EA08409DE731463046BDE8F087CEF1CB
:10037400200405FA0EF307FA0EF720FA04F83A0CF3
:1003840025FA04F448EA0308B4FBF2F14FEA1845ED
:1003940002FB11441FFA87FC45EA044501FB0CF3F8
:1003A400AB4200FA0EF409D9ED1901F1FF3080F0E7
:1003B4008A80AB4240F2878002393D44EB1A1FFA2F
:1003C40088F5B3FBF2F002FB103345EA034500FB6A
:1003D4000CF3AB4207D9ED1900F1FF386FD2AB42F1
:1003E4006DD902383D44EB1A40EA01418FE7C1F16F
:1003F400200722FA07F88B4005FA01F448EA0303C0
:1004040020FA07FE4FEA134CFD404EEA040EB5FBFA
:10041400FCF94FEA1E440CFB19551FFA83F844EA11
:10042400054509FB08F4AC4202FA01F200FA01FAAC
:1004340008D9ED1809F1FF3043D2AC4241D9A9F1F2
:1004440002091D442D1B1FFA8EFEB5FBFCF00CFBAC
:1004540010554EEA054400FB08F8A04507D9E418F6
:1004640000F1FF3529D2A04527D902381C4440EABF
:100474000940A4EB0804A0FB02894C45C6464D463E
:1004840015D312D056B1BAEB0E0364EB050404FA8B
:1004940007F7CB401F43CC40376074600021BDE8B0
:1004A400F0871846F8E69046E0E6C245EAD2B8EB93
:1004B400020E69EB03050138E4E72846D7E7404616
:1004C40091E78146BEE7014678E702383C4445E7B8
:1004D400084608E7A8F102083D442BE703685A00E0
:1004E4004CBF43F0004323F000431844704700BF5F
:1004F40061B32DE9F84F01F1FF3A90460646D14623
:10050400002707EB090404EBD4746410E5007119A7
:100514000846FFF7E3FFA245834605F1080030448F
:1005240009D0FFF7DBFFC34500F1FF3005D8404594
:1005340009D2671CE5E7C34505D9A74202D004F1F7
:10054400FF39DEE700210846BDE8F88F084670470A
:10055400012807D0022807D0044B00280CBF1846F6
:10056400002070470248704702487047590C000841
:100574005D0C0008610C000830B5244B83B00446C0
:100584008D1E7BB301A92846AFF3008020B30199E7
:100594002A46FFF7ADFF0146F0B1FFF79FFF4B6816
:1005A400A064012B12D0002B01F1040020DBFFF723
:1005B40095FF0023E06423650368002B1CDBFFF731
:1005C4008DFF00232061184603B030BD0023236152
:1005D4000523184603B030BD0023236109231846C0
:1005E40003B030BD0A490B48091AC9100191CFE77D
:1005F4000123E0642365DFE7C3F30360FFF7A8FF8B
:100604000028206114BF00230923DCE70000000058
:1006140028350008283400080368DA0710B50446B2
:1006240006D49B0700F1480009D500F051FC23686B
:10063400590709D51A070ED5DB0613D510BD00F0EE
:100644003FFC23685907F5D404F1D00000F048FCBE
:1006540023681A07F0D404F5A87000F049FC236855
:10066400DB06EBD404F5E870BDE8104000F084BC70
:10067400036803B103441846704700BF092070475C
:10068400704700BF70B504460D4608E02B6C6361EB
:100694002A462369214601209847082808D1296C55
:1006A4002046FFF769FF06460028EFD002F016FE49
:1006B4000728FBD13046296CFFF7E2FF281D00F024
:1006C400F3FB00BF2DE9F0470C1D054692460FCC05
:1006D400ADF5727D03AE0FC60FCC0FC60FCC0FC69F
:1006E40094E80F0002ACD5F80C80D5F8189086E891
:1006F4000F0000232846216C2360FFF73DFFBAF169
:10070400000F074614BF0A2609267FB1A36B46F0E3
:1007140010018DE810022A46636401202B46C0476D
:1007240078BB38460DF5727DBDE8F087236C6B61AC
:100734004FF4F07221467AA802F0D7FD2B697AAA09
:10074400294630469847889B82468DE810023146F8
:1007540063642A462B460120C04790B94FF4F072D7
:100764007AA9204602F0C1FDBAF1080F06D1216C26
:100774002846FFF701FF09260746C6E7BAF1070F27
:1007840005D0092738460DF5727DBDE8F087384657
:10079400216CFFF775FF03A800F086FB406C7047DF
:1007A400F0B5CB6B0B640E1D0F4604460FCEF9B0AB
:1007B40001AD0FC50FCE0FC50FCE0FC596E80F00C4
:1007C4004FF0FF3685E80F00009606E023696A467D
:1007D400214698470828054608D110992046FFF776
:1007E400CBFE0028F2D0092079B0F0BD6846FFF7AF
:1007F40013FF062DF7D139462046FFF743FF00BF0C
:1008040030B4DD6BC160826119461D64002230BCC6
:1008140058E700BF70B5C66843690B6426B101226E
:10082400FFF750FF02F05AFD03690A4604460D46DD
:10083400014602209847072807D0082803D12946F3
:100844002046FFF71FFF02F049FD3046296CFFF7F1
:1008540017FF281D00F028FBC2681AB1CA6B0A648E
:1008640000222FE79CE700BF704700BF836813B1E5
:10087400014601201847704700B5042907D8DFE86E
:1008840001F00309060909000BB90F2A05D9022052
:100894005DF804FB01205DF804FB00EB82021846BE
:1008A4005368019A13605DF804FB00BF10B584B06F
:1008B400002303AC0A4600941946FFF7DDFF0398B2
:1008C40004B010BD00B5042907D8DFE801F003091E
:1008D400060909000BB90F2A05D902205DF804FBAB
:1008E40001205DF804FB019900EB82020968516064
:1008F40018465DF804FB00BF10B584B004AC0023B7
:1009040044F8042D0A4600941946FFF7DBFF04B0AF
:1009140010BD00BFF0B5D36B1364151D07460E461A
:100924000FCDADF50F7D17AC0FC40FCD0FC40FCD98
:100934000FC495E80F004FF0FF3584E80F001695BB
:1009440010E016A8FFF7D8FF314616A8B84716AA34
:10095400694678B9049B08209847052804460AD0BC
:10096400092807D026996846FFF706FE6A460C2137
:100974000028E6D0092416A8FFF74EFE20460DF500
:100984000F7DF0BD2DE9F04F0D46C96C8BB00C1DE9
:10099400096807919146089400F0030B1E46002B4A
:1009A40060D10902032307918DF825608DF8243066
:1009B4002B6DBBF1020F08BFAC6B13F0010340D1E8
:1009C400019300F008030393D4F80080B8F1000FFA
:1009D40039D0022E43D0B4F8008067880434AB6C5D
:1009E40027F0010A0F2148469A44FFF75FFF82452A
:1009F40033D828F001039A4450452CBF002001202D
:100A04007F0007F0020708F0010847EA0807012FF2
:100A14003ED035D3022F1CD1236823F0004202922A
:100A2400BBF1000F76D128B1039900297ED0002AAA
:100A340000F0A680002B77DB029B013304EB8304D8
:100A4400C2E700230193022E3EDDFFF717FE0028C4
:100A540040D009200BB0BDE8F08F0020D0E76768D4
:100A64000834BCE7022BA3DC0B0CDAB209048DF8C2
:100A74002530022304EB820407918DF8243097E794
:100A8400BBF1000F02D0002840F0BD8004349BE786
:100A9400BBF1000F25D1A8B194E80C00991C4FEAD2
:100AA400D272D6D005F158010133069100F0A3802B
:100AB400201DFFF7DDFD06AB01462846AFF300809D
:100AC400002877D108347FE707A9484600F0EEFAFA
:100AD4000028BED1019B002B5CD108200BB0BDE8DF
:100AE400F08F0D2148462F6AFFF7E0FE8742E9D1D7
:100AF400AB6A9C42E6D12046FFF7F0FC0F21024688
:100B04004846FFF7F9FE48462A460021FFF7F4FE5F
:100B140007209FE70D2148462F6AFFF7C7FE87424B
:100B240058D02368002B87DA043485E7029B3BB353
:100B340005F15803271DCDF810B0DDF80C80DDF861
:100B440008A00596A3461C4602E0B245B04616D05E
:100B540038460694FFF78CFD06AB01460022284672
:100B6400AFF3008008F1010604370028EDD0029BA2
:100B7400059E43455C46DDF810B0D2D100E05C46EA
:100B840048460D21FFF792FE069B2862AC626B6219
:100B940006205FE70F214846FFF788FE0E21024634
:100BA4004846FFF7A9FE4846294A0F21FFF7A4FE4D
:100BB40007204FE707460D214846FFF777FE022F2F
:100BC40028621DD12B46069A43F82C2F6B62AC6227
:100BD40006203FE7AB6A9C42A3D104220027A31856
:100BE4000299A962EF622A636B632368BB421DDB2F
:100BF4000123019320E748460D21FFF757FE2862A1
:100C0400069B6B62E3E72046FFF768FC0434064664
:100C1400AC632846AFF3008000283FF41AAF48467F
:100C240032460F21FFF768FE072013E7084601301C
:100C340004EB8000FFF752FC0F2102464846FFF701
:100C44005BFE48462A463946FFF756FE072001E771
:100C540000000000002395E6012393E6022391E6B9
:100C6400F0B50446C5B004290DD8DFE801F05303FC
:100C74000C310F00012B4FEA124695B262D1721962
:100C8400102A40F29B80022045B0F0BD002BFAD11F
:100C9400102AF8D82368D80600F1C68022AE304660
:100CA400019200F073F9A06B019A0023012505FA63
:100CB40003F1114203D0016846F8231004300133D4
:100CC400042BF4D1A063304600F056F90020DBE792
:100CD400032BD8D1150C97B2EB19102BD3D823685A
:100CE4001E0700F1B58022AE304600F023F9ED0076
:100CF400A36B4FB1043D711903EBC70053F8042BE8
:100D040041F8042F8342F9D13046A36300F0F0F890
:100D14000020B9E7002BB6D1A56B97B2201D0126A0
:100D240006FA03F1394203F1010302D02968016094
:100D34000435102B00F10400F2D112F400503BD121
:100D4400A563A1E7052B9ED17719202F9BD80F2EE1
:100D540066D92F46002D3AD12A460027002AA06BD7
:100D640072DD00EBC202014644A800EBC6008C38D9
:100D740051F8045B40F8045F9142F9D1084697B1F9
:100D8400102E324644A938BF102201EBC202A2F54C
:100D9400C4727900043A00EB810150F8045B42F814
:100DA400045F8842F9D1012B48D00F2EA16333D9B7
:100DB40017B102A800F094F8002065E70F2E3FF663
:100DC40062AF00272268D10717D4002F60D02268B1
:100DD400510745D4012B4DD00F2E06D822A80193DC
:100DE40000F07AF8019B002FB6D002A8019300F01E
:100DF4007BF8019BC6F11002B0E722F00101052B3C
:100E04002160019320463BD022F0030240F8482B96
:100E140000F05AF8019BD8E722A800F059F8C7E778
:100E2400102FCED9103FCDE723F01003236004F533
:100E3400E870019200F0AAF8019A2FE70431A16347
:100E440022A800F03DF8B7E7002F99D10146AAE7A0
:100E540023F00803236004F5A87000F06BF842E760
:100E6400204622F0040240F8D02B019300F03CF815
:100E7400019BAFE722A8019300F026F8019BB9E794
:100E840041F0020140F8481B00F026F8019B9CE762
:100E9400012B03D00F2E3FF65FAF9FE722A80193EB
:100EA40000F012F8019B57E700F1340191E8380093
:100EB4009C46A6464CF8045D90E8FF0FE54600BD4D
:100EC40090EC210B704700BF80EC210B704700BFF2
:100ED40090EC200B704700BF80EC200B704700BFE4
:100EE400D0EC200B704700BFC0EC200B704700BF54
:100EF400F0EC0201F0EC0211F0EC0221F0EC023112
:100F0400F0EC0241F0EC0251F0EC0261F0EC027101
:100F1400F0EC0281F0EC0291F0EC02A1F0EC02B1F1
:100F2400F0EC02C1F0EC02D1F0EC02E1F0EC02F1E1
:100F3400704700BFE0EC0201E0EC0211E0EC02219A
:100F4400E0EC0231E0EC0241E0EC0251E0EC026141
:100F5400E0EC0271E0EC0281E0EC0291E0EC02A131
:100F6400E0EC02B1E0EC02C1E0EC02D1E0EC02E121
:100F7400E0EC02F1704700BFB0FC0181B0FC0191CC
:100F8400B0FC01A1B0FC01B1704700BFA0FC01811D
:100F9400A0FC0191A0FC01A1A0FC01B1704700BF1D
:100FA400EC4600B52DE900502DE9FF1F4FF000037A
:100FB4002DE90C0001A9FFF7F3FBDDF840E012B0C6
:100FC400704700BFEC4600B52DE900502DE9FF1F26
:100FD4004FF000032DE90C0001A9FFF71BFCDDF81D
:100FE40040E012B0704700BFEC4600B52DE9005058
:100FF4002DE9FF1F4FF000032DE90C0001A9FFF7B5
:101004002BFCDDF840E012B0704700BFEC4600B5A1
:101014002DE900502DE9FF1F4FF000032DE90C00CE
:1010240001ABFFF7EDFBDDF840E012B0704700BF05
:10103400EC4600B52DE900502DE9FF1F4FF00003E9
:101044002DE90C0001AAFFF765FCDDF840E012B0C1
:10105400704700BF027A1AB9437A43B9B020704787
:101064000368013A02721A020260180E704742685D
:10107400013B10B4437213680321141D01721A0258
:10108400446002605DF8044B180E704700B585B0EB
:1010940003AA0023009219460C22FFF7EDFB0398E4
:1010A40005B05DF804FB00BFF0E700BF2DE9F04395
:1010B400064685B00F464FF000083846FFF7CAFFD2
:1010C400B028044623D0050627D400230DF10C09CB
:1010D400194685000D22CDF800903046FFF7CCFB71
:1010E400EDB2039BCDF80090600605F104054CBFFA
:1010F4005D1BED18002319460D2230460395FFF7BA
:10110400E1FB3846FFF7A6FFB0280446DBD1B8F16F
:10111400000F00F0958000201CE000F0F003802B0D
:101124005DD0902B19D0A02B2CD0B02B3FD0C02B4E
:101134006CD000F0F803D02B0BD100F00702013281
:1011440042F40022052301213046FFF789FD0028DF
:10115400B3D0092005B0BDE8F08300F00D030D2BDA
:10116400F7D003AD002300F00F0219460095304676
:10117400FFF782FB0023009519460D223046FFF746
:10118400A1FB9AE7C24302F007034FF47F621A41BE
:10119400010702F47F624FF0000348BF42F480422B
:1011A40019463046FFF75CFD0028D2D185E7B12807
:1011B40057D0B22868D0B32800F0958000F0FC0323
:1011C400B42BC6D000F007020132012342F40022FE
:1011D40019463046FFF744FD0028BAD16DE738467A
:1011E400FFF738FF24020443B4F5004FB1D02401C3
:1011F4000023A2B219463046FFF732FD0028A8D1D9
:1012040014F4004F18BF4FF0010856E7C6287DD0EC
:10121400C72800F0868000F0F803C02B00F094800B
:10122400C82800F09F80C92893D13846FFF712FFE1
:10123400020300F00F0002F470220130024381E740
:1012440003AC43460E22414600943046FFF714FB9C
:101254000094304643460F224146FFF733FB404695
:1012640078E73846FFF7F6FE00283FF472AF10F037
:10127400F0037FF46EAF024619463046FFF7F0FCE8
:1012840000287FF466AF18E700230DF10C090D2246
:101294001946CDF800903046FFF7EEFA3846FFF7CE
:1012A400D9FE02064FF002040CD5039B00F07F0028
:1012B400A040034438460393FFF7CCFE030604F131
:1012C4000704F2D4039BCDF8009000F07F02A24003
:1012D40003F501740023144419460D223046039487
:1012E400FFF7F0FAE9E63846FFF7B4FE010300F031
:1012F4000F0001F47021421C01230A4330461946B1
:10130400FFF7AEFC00287FF424AFD6E63846FFF79B
:10131400A1FE010300F00F0001F47021421C03231D
:10132400EBE73846FFF796FE00283FF412AF10F0C3
:10133400F0037FF40EAF024604213046FFF790FC21
:1013440000287FF406AFB8E600F00F020132032351
:1013540042F4202219463046FFF782FC00287FF42D
:10136400F8AEAAE63846FFF775FE00F0F00200F08A
:101374000F031032013343EA0232E3E610B5C36CC3
:1013840084B05A6803208DF80C00DC798DF80D4088
:1013940012020833084601A901920293FFF786FE60
:1013A40004B010BD08B5FFF77FFE806C08BD00BF18
:1013B40008B5FFF779FEC06CC37900EB83000830F1
:1013C40008BD00BF08B501F089FF00BF08B5FFF7ED
:1013D400F9FF00BF704700BF38B50E4A0E4B0546F3
:1013E40018784FF47A73B3FBF0F31068B0FBF3F0A2
:1013F40000F09AF8044658B90F2D09D80246294638
:101404004FF0FF3000F050F8044B20461D6038BD0B
:10141400012038BD08000020000000200400002046
:1014240008B5032000F02EF80020FFF7D5FF01F0E7
:10143400E5FC002008BD0000034A044B11681B783A
:101444000B441360704700BFE80300200000002035
:10145400014B1868704700BFE803002038B5044604
:10146400FFF7F6FF631C1CBF054B1B78054618BF2E
:10147400E418FFF7EDFF401B8442FAD838BD00BFE3
:1014840000000020074AD36823F4E0631B041B0C0C
:1014940043F0BF63000243F4003300F4E06003430D
:1014A400D360704700ED00E0174B30B5DC68C4F33F
:1014B4000224C4F10703251D042B28BF0423062D91
:1014C4004FF0010505FA03F303F1FF338CBF033C2E
:1014D40000241940A14005FA04F4013C22400028EC
:1014E40042EA01024FEA0212AFBF00F1604000F08D
:1014F4000F00064BD2B2A5BF00F56140D2B21A5418
:1015040080F8002330BD00BF00ED00E014ED00E0E2
:101514004209012300F01F0003FA00F0014B43F8D5
:101524002200704700E100E00138B0F1807F0AD268
:10153400064B074A5860F02182F823100020072246
:1015440098601A6070470120704700BF10E000E007
:1015540000ED00E0044B1A6804280CBF42F00402BA
:1015640022F004021A60704710E000E0704708B5EA
:10157400FFF7FCFF08BD00000368DAB223F47F73B1
:1015840023F003031821103AB2FBF1F20449032AB1
:1015940088BF0433895C8365C165806D704700BF73
:1015A400C833000870B50446FFF752FF0546002C07
:1015B40071D0002384F834302268022384F8353053
:1015C400136823F00103136021680B68D8073CD427
:1015D4000B68324D6268A0691D40A3681343E2683A
:1015E40013432269134362691343E26903431343B8
:1015F400226A1343626A042A43EA050301BF266B85
:10160400E56A35432B430B604B69042A23F0070337
:1016140043EA02030BD1A26AE56A13433DB1F8B968
:10162400012A2DD001D3022A01D1EA012BD44B6126
:101634002046FFF7A1FFE26D3F2393408360002023
:101644000123606584F8353070BDFFF701FF401B4E
:101654000528B9D920236365032084F8350070BDBB
:10166400B0F5005F13D1032AE1D801A050F822F0AD
:101674008B1600082F1600088B1600088516000824
:10168400B5F1C07FD3D1402363650120E5E7022A89
:10169400F9D9032AC8E7012070BD00BF3F8010F0CC
:1016A40090F83530022B03D0802343650120704726
:1016B4000268052380F83530136823F001031360B2
:1016C40000207047F7B5002301935A4B856D1F68BE
:1016D400C36D2E6808229A40164204460CD0016855
:1016E4000868400708D5086820F004000860AA606C
:1016F400626D42F00102626501229A40164208D0EE
:1017040021684969090641BFAA60626D42F002027C
:10171400626504229A40164208D021680968880745
:1017240041BFAA60626D42F00402626510229A40D1
:10173400164210D02368196809070CD5AA601A68E4
:10174400500335D51B68190301D4236C00E0A36C46
:101754000BB120469847E16D20228A40164238D0CA
:1017640023681868C60634D5AA6094F83520052A7B
:101774001A6825D122F016021A605A6922F08002F2
:101784005A61226C0AB9A26C1AB11A6822F00802D2
:101794001A603F238B40AB60002384F8343001236C
:1017A40084F83530236D0BB12046984703B0F0BD63
:1017B4001A68D2055EBF1A6822F008021A60C4E7EC
:1017C400500328D51B68190332D4636C0BB120462F
:1017D4009847636D002BE9D0636DDA0719D50523AB
:1017E400226884F83530136823F0010313604FF442
:1017F4001653B7FBF3F7019B01339F42019302D3C6
:101804001368DB07F7D4002384F83430012384F809
:101814003530E36CC7E71A6812F4807208D119688E
:1018240021F010011960012384F8342084F8353044
:10183400E36BCBE7080000202DE9F04F85B00B687F
:10184400DFF89C81644A01934FF001090023019C55
:1018540009FA03F707EA0406B74240F0AD804C6882
:1018640024F0100ABAF1020F16D14FEAD30C00EBA0
:101874008C0C03F0070BDCF820504FEA8B0B4FF075
:101884000F0E0EFA0BFE25EA0E0E0D6905FA0BF586
:1018940045EA0E05CCF820504FEA430C0325D0F856
:1018A40000B005FA0CF5ED4304F0030E0BEA050B4A
:1018B4000EFA0CFE0AF1FF3A4EEA0B0EBAF1010FD2
:1018C4000095C0F800E015D8D0F808E005EA0E0E3F
:1018D400CD6805FA0CFA4AEA0E0EC0F808E0D0F812
:1018E40004E02EEA0707C4F3001E0EFA03FE4EEAD4
:1018F40007074760C768009D3D408F6807FA0CF7EB
:101904003D43C560E50057D54FF0000BCDF80CB052
:10191400D8F84470314D47F48047C8F84470D8F87B
:10192400447007F480470397039F23F0030707F1EC
:10193400804707F59C3703F0030CD7F808A04FEA5B
:101944008C0C4FF00F0E0EFA0CFEA8422AEA0E0E73
:1019540039D005F58065A84237D005F58065A842E1
:1019640035D005F58065A84233D005F58065A842D9
:1019740014BF0725042505FA0CF545EA0E05BD60DC
:101984001568F74314F4803F0CBF3D4035431560A0
:10199400556814F4003F0CBF3D40354355609568CD
:1019A40014F4801F0CBF3D4035439560D568A402F4
:1019B40054BF3D403543D5600133102B7FF447AF0E
:1019C40005B0BDE8F08F5D46D5E70125D3E70225D4
:1019D400D1E70325CFE700BF003C014000000240EF
:1019E400003802400AB1816170470904FBE7000036
:1019F40070B50446002862D090F83D3003F0FF0231
:101A04001BB980F83C2001F041FA22682D4E2E4D7E
:101A1400242384F83D30136823F00103136000F09D
:101A2400A5FA63682268B0FBF5F5B34284BF4FF4AE
:101A340096716943556091BF691C4FF47A75B1FB87
:101A4400F5F10131B342116221D85B00B0FBF3F030
:101A5400C0F30B03032B98BF0420216AE369D06110
:101A64000B431360E16823690B439360A1696369C5
:101A74000B43D360136843F0010313600020202359
:101A8400206484F83D30206384F83E0070BDA16872
:101A940049B903EB4303B0FBF3F0C0F30B0363B1A9
:101AA40040F40040D9E719214B43B0FBF3F0C0F3F5
:101AB4000B0313B140F44040CFE70120CDE70120F0
:101AC40070BD00BFA086010040420F002DE9F34124
:101AD400044618B9012002B0BDE8F0810368DD07AF
:101AE40010D42368980758D423681A0700F19A8001
:101AF40023685B0700F1B880A269002A40F01981CD
:101B04000020E8E7A64B9A6802F00C02042A07D0EA
:101B14009A6802F00C02082A0AD15B68590207D5B8
:101B24009F4B1B689A03DCD56368002BD9D1D1E79E
:101B340063689B4DB3F5803F11D12B6843F4803328
:101B44002B60FFF785FC964D06462B689B03C8D493
:101B5400FFF77EFC801B6428F7D90320BBE7B3F5AD
:101B6400A02F04D12B6843F480232B60E5E72A6877
:101B740022F480322A602A6822F480222A60002B10
:101B8400DFD1FFF765FC06462B689F03A9D5FFF755
:101B94005FFC801B6428F7D9DFE7814B9A6812F059
:101BA4000C0F07D09A6802F00C02082A11D15B6866
:101BB4005E020ED47A4B1A68950702D5E268012AB0
:101BC40088D11A68216922F0F80242EAC1021A6037
:101BD4008AE7E268734BB2B101221A60FFF738FC5E
:101BE4006F4D06462B68980707D52B68226923F0AA
:101BF400F80343EAC2032B6076E7FFF729FC801B56
:101C04000228EFD9A9E71A60FFF722FC644D0646C3
:101C14002B6899077FF568AFFFF71AFC801B022831
:101C2400F6D99AE76269604B7AB101221A60FFF72C
:101C34000FFC5B4D06466B6F9F073FF559AFFFF7EF
:101C440007FC801B0228F6D987E71A60FFF700FC1F
:101C5400534D06466B6F98077FF54AAFFFF7F8FBC5
:101C6400801B0228F6D978E74D4B1A6C12F080528B
:101C740028D101921A6C42F080521A641B6C03F052
:101C840080530193019B0126484D2B68D9051BD530
:101C9400A368434D012B27D12B6F43F001032B671E
:101CA400FFF7D6FB3E4D074641F288382B6F9B0762
:101CB40039D5002E3FF420AF394A136C23F08053FA
:101CC400136419E70026DFE72B6843F480732B6065
:101CD400FFF7BEFB07462B68DA05D9D4FFF7B8FB3C
:101CE400C01B0228F7D938E7052B04D12B6F43F02A
:101CF40004032B67D0E72A6F22F001022A672A6FB8
:101D040022F004022A67002BCAD1FFF7A1FB41F29B
:101D1400883807462B6F9807CBD5FFF799FBC01B74
:101D24004045F7D919E7FFF793FBC01B4045BDD9E0
:101D340013E71B4DAB6803F00C03082B3FF4CAAE4A
:101D44001B4E0023022A336034D1FFF781FB074680
:101D54002B6899011ED4226AE3691343626A43EA39
:101D64008213E26A43EA0263A26A0D4C5208013A02
:101D740043EA02436B6001233360FFF769FB0546C6
:101D840023689A013FF5BCAEFFF762FB401B0228B3
:101D9400F6D9E2E6FFF75CFBC01B0228D8D9DCE6E3
:101DA4000038024000004742800E47420070004065
:101DB40060004742FFF74CFB04462B689B017FF50C
:101DC4009FAEFFF745FB001B0228F6D9C5E600BF0E
:101DD400134908B58B6803F00C03042B03D0082BBC
:101DE40003D0104808BD104808BD4A684B684968CC
:101DF40013F4800314BF0C480A48C1F3881118BFB8
:101E0400002302F03F02A1FB0001FEF7E1F9044BBD
:101E14005B68C3F3014301335B00B0FBF3F008BD1F
:101E2400003802400024F40000127A002DE9F04149
:101E34000D46044610B90120BDE8F081444B1A68F0
:101E440002F00F028A4228D321688F072DD4C807D5
:101E540040D43F4B1A6802F00F02954266D32268C1
:101E640051076CD4130707D53A4A2169936823F4C0
:101E7400604343EAC1039360FFF7AAFF354B364A38
:101E84009B68C3F30313D35CD840344B1860002021
:101E9400FFF7A2FA0020BDE8F081CAB21A701B68ED
:101EA40003F00F039942C6D1CEE72A4B11F0040F79
:101EB4001EBF9A6842F4E0529A600E0742BF9A68C5
:101EC40042F460429A609A68A06822F0F0020243E9
:101ED4009A60BCE762681F4B012A1DD11B6813F48A
:101EE400003FA8D01B4EB36823F003031343B36031
:101EF400FFF7AEFA41F288380746B368626803F028
:101F04000C03B3EB820FA4D0FFF7A2FAC01B404529
:101F1400F3D90320BDE8F081911E01291B6802D882
:101F240013F0007FDDE713F0020FDAE7EAB21A706C
:101F34001B6803F00F039D427FF47DAF8FE70549D3
:101F4400E0688B6823F4E05303438B608AE700BFA7
:101F5400003C024000380240EB3300080800002037
:101F6400014B1868704700BF08000020044B054A65
:101F74009B68C3F38223D35C034A1068D84070473C
:101F840000380240FB33000808000020044B054AD7
:101F94009B68C3F34233D35C034A1068D84070474C
:101FA40000380240FB330008080000202DE9F0410E
:101FB400069E0446884617461D462268936838EAFA
:101FC40003030CBF012300239F4202D10020BDE87C
:101FD400F0816B1CF2D055BB23685A6822F0E002F2
:101FE4005A606268B2F5827F0AD1A268B2F5004FE6
:101FF40002D0B2F5806F03D11A6822F040021A6051
:10200400A26AB2F5005F09D11A6822F400521204E0
:10201400120C1A601A6842F400521A60012384F800
:102024005130002384F850300320BDE8F081FFF7DD
:102034000FFA801B8542C0D8CEE713B50B46009239
:10204400802100220446FFF7B1FF20B1636D43F005
:1020540020036365032002B010BD10B504460028B8
:1020640036D00023836290F8513003F0FF021BB98D
:1020740080F8502000F034FF2168A068A269022390
:1020840084F851300B6823F040030B60636803430A
:10209400E06803432069034360690343E069034341
:1020A400206A0343A06A034302F4007003430B60F5
:1020B400120C636A02F004021A434A60CB6923F4E7
:1020C4000063CB6100200123606584F8513010BDAA
:1020D400012010BD2DE9FF411E4690F85030012B20
:1020E40004460D46904600F09C80012380F8503051
:1020F400FFF7AEF9074694F85100C0B2012840F04A
:102104008E80002D4ED0B8F1000F4BD0032384F8FD
:10211400513000236365A363A4F83680A387E38763
:1021240063642364A3682563B3F5004F2368A4F8AC
:10213400348002BF1A6842F480421A601A68520658
:102144005EBF1A6842F040021A60E268B2F5006F9E
:10215400626838D11AB1E28E92B2012A06D135F8FA
:10216400022BDA60E38E013B9BB2E386E38E9BB2E3
:1021740093B900973346012202212046FFF716FF48
:1021840078B93A4631462046FFF757FF002838D041
:1021940020236365012005E023689A689007DED454
:1021A4004EB90320012384F85130002384F85030C1
:1021B40004B0BDE8F081711CD8D0FFF749F9C01B09
:1021C4008642D3D8EDE71AB1E28E92B2012A06D143
:1021D40015F8012B1A73E38E013B9BB2E386E38E61
:1021E4009BB2002BC5D023689A689207F0D4002EC6
:1021F400D7D0731CF3D0FFF72BF9C01B8642EED85F
:10220400CFE7A36833B903932368DA6803929B6822
:102214000393039B606D003018BF0120C2E70220C6
:10222400C0E70220C4E72DE9F043994690F8503006
:1022340085B0012B04460D4616460C9F00F0ED8038
:10224400012380F85030FFF703F994F851306168A6
:10225400DBB2012B80460AD0B1F5827F40F0DB80EF
:10226400A268002A40F0D780042B40F0D480002DCF
:102274004ED0002E4CD0B9F1000F49D094F8513013
:10228400A663012B04BF052384F851300023636542
:10229400236463642368A4F83E90A4F836901A6813
:1022A400A4F83C90500658BF1A68256358BF42F002
:1022B4004002A4F8349058BF1A60E268B2F5006F87
:1022C4005DD119B1E28E92B2012A06D135F8022B02
:1022D400DA60E38E013B9BB2E3864FF00109E38EA3
:1022E4009BB2BBB9E38F9BB2A3B9CDF800803B4648
:1022F400012202212046FFF759FE002835D142462B
:1023040039462046FFF799FE002879D020236365DB
:1023140001202BE0B9F1000F0FD0E38E9BB263B123
:1023240023689A68910708D535F8022BDA60E38EA2
:10233400013B9BB2E3864FF00009E38F9BB263B18C
:1023440023689A68D20708D5DB6826F8023BE38F36
:10235400013B9BB2E3874FF00109781CBFD0FFF724
:1023640077F8A0EB08008742B9D80320012384F84A
:102374005130002384F8503005B0BDE8F08319B122
:10238400E28E92B2012A06D115F8012B1A73E38E5C
:10239400013B9BB2E3864FF00109E38E9BB21BB96C
:1023A400E38F9BB2002BA0D0B9F1000F0FD0E38EC6
:1023B4009BB263B123689A68910708D52A781A7387
:1023C400E38E013B9BB2E38601354FF00009E38FB6
:1023D4009BB263B123689A68D20708D5DB6833706F
:1023E400E38F013B9BB2E38701364FF001097B1C6D
:1023F400D3D0FFF72DF8A0EB08008742CDD8B4E77F
:10240400A368002BB2D123680390DA6803929B6817
:102414000393039BAAE70220A8E70220ACE72DE977
:10242400F3411E464368B3F5827F04460D46904649
:102434000CD1836853B9042380F8513013460096B5
:102444000A46FFF7F0FE02B0BDE8F08194F8503080
:10245400012B00F08180012384F85030FEF7F8FF4F
:10246400074694F85100C0B2012873D1002D58D00A
:10247400B8F1000F55D0042384F85130002363656C
:102484002363A4F83E80A386E38623646364A3687D
:10249400A563B3F5004F2368A4F83C8002BF1A6813
:1024A40022F480421A601A6852065EBF1A6842F02B
:1024B40040021A60E368CBB1E38F9BB2D3B12368C7
:1024C4009A68D2073CD5DB6825F8023BE38F013BD1
:1024D4009BB2E387F0E723689A68D0071FD51B7B7C
:1024E40005F8013BE38F013B9BB2E387E38F9BB28B
:1024F400002BF0D16368B3F5827F0BD1A368B3F5E9
:10250400004F02D0B3F5806F04D12268136823F022
:1025140040031360606D003018BF012001E03EB934
:102524000320012384F85130002384F850308AE7D3
:10253400711CDBD0FEF78CFFC01B8642D6D8EFE7B8
:10254400002EEDD0731CB7D0FEF782FFC01B86426D
:10255400B2D8E5E70220E4E7022074E77047000000
:10256400036830B559689A6802F04105012D85B0B9
:10257400044605D14D0603D5036C984705B030BD1C
:10258400950704D5080602D5636C2046F5E712F4D6
:10259400B07FF3D08D06F1D550060FD594F85100D5
:1025A40003284FF0000541D0606D40F004006065E1
:1025B4000095D868009098680090009895060CD50E
:1025C400606D40F001006065002002909868029000
:1025D400186820F0400018600298D00508D5626D94
:1025E40042F008026265002203929A680392039AF9
:1025F400626D002AC2D05A6822F0E0025A600122B9
:1026040084F851208A0718D05A68E06C22F003023B
:102614005A6018B10B4B0365FFF742F8A06C002811
:10262400ACD0084B0365FFF73BF8A7E70195DA68E0
:1026340001929B680193019BA0E72046FFF78EFF60
:102644009CE700BF4D26000808B5806B0023C387B4
:10265400C386FFF783FF08BD2DE9F0470668C2680B
:102664003369C16923F440531343336104468368D7
:102674000069F2680343606922F41642034322F0BE
:102684000C020B431343F3607369A26923F4407390
:102694001343B1F5004F73617A4B7CD19E4203D052
:1026A40003F580639E4244D1FFF770FC192505FBB6
:1026B40000F360684FF064094000B3FBF0F3B3FB30
:1026C400F9F34FEA0318FFF761FC636868435B00A2
:1026D400B0FBF3F7FFF75AFC636868435B00B0FB99
:1026E400F3F3B3FBF9F309FB1373DB003233B3FBEE
:1026F400F9F35B0003F4F877FFF748FC626868437A
:102704005200B0FBF2FAFFF741FC636868435B00D8
:10271400B0FBF3F3B3FBF9F309FB13A3DB00323390
:10272400B3FBF9F303F0070343443B44B360BDE850
:10273400F087FFF71BFC192505FB00F360684FF0D9
:1027440064094000B3FBF0F3B3FBF9F34FEA031859
:10275400FFF70CFC636868435B00B0FBF3F7FFF71B
:1027640005FC636868435B00B0FBF3F3B3FBF9F368
:1027740009FB1373DB003233B3FBF9F35B0003F49F
:10278400F877FFF7F3FB626868435200B0FBF2FA94
:10279400FFF7ECFBB9E79E4202D03B4B9E4240D18F
:1027A400FFF7F4FB676819254FF0640905FB00F394
:1027B400BF00B3FBF7F3B3FBF9F31F01FFF7E6FB2D
:1027C400636868439B00B0FBF3F8FFF7DFFB6368C3
:1027D40068439B00B0FBF3F3B3FBF9F309FB1383EA
:1027E4001B013233B3FBF9F303F0F008FFF7CEFB20
:1027F400626868439200B0FBF2FAFFF7C7FB6368B4
:1028040068439B00B0FBF3F3B3FBF9F309FB13A399
:102814001B013233B3FBF9F303F00F0343EA08035C
:1028240083E7FFF7A3FB676819254FF0640905FBED
:1028340000F3BF00B3FBF7F3B3FBF9F31F01FFF79A
:1028440095FB636868439B00B0FBF3F8FFF78EFBCE
:10285400636868439B00B0FBF3F3B3FBF9F309FB34
:1028640013831B013233B3FBF9F303F0F008FFF7D2
:102874007DFB626868439200B0FBF2FAFFF776FBD7
:10288400BDE700BF001001400014014010B504462C
:1028940040B390F8393003F0FF021BB980F83820B8
:1028A40000F02CFC2268242384F83930D36823F404
:1028B4000053D3602046FFF7CFFE23681A6922F441
:1028C40090421A615A6922F02A025A61DA6842F483
:1028D4000052DA6000202023E06384F8393084F861
:1028E4003A3010BD012010BD13B5044649008DF8DF
:1028F40004108DF80520818880680022FFF772F8A3
:102904004FF47A7301A902222068FFF7E3FB012246
:10291400A188A068FFF766F802B010BD08B58188E9
:1029240080680122FFF75EF80A20BDE80840FEF740
:1029340095BDF7B5044616460D4600228188806889
:102944001F466D00FFF74EF802A9013501F8015D3D
:102954004FF47A7301222068FFF7BCFB4FF47A73BB
:102964003A4631462068FFF75AFD0122A188A06843
:10297400FFF738F803B0F0BD13B504468DF8041022
:102984008DF80520818880680022FFF72BF84FF42A
:102994007A7301A902222068FFF79CFB0122A18817
:1029A400A068FFF71FF802B010BD37B502AD0022D2
:1029B40080390446ADF8042005F8041D8188806838
:1029C400FFF710F829464FF47A7301222068FFF7C5
:1029D40081FB0120FEF742FD4FF47A730DF10501EE
:1029E40001222068FFF71BFDA068A1880122FEF7E1
:1029F400F9FF9DF8050003B030BD10B58188044689
:102A040001228068FEF7EEFF6420FEF727FDB62260
:102A14007E212046FFF7B0FF0A20FEF71FFD0F219D
:102A24002046FFF7C2FF0A20FEF718FD11227E217F
:102A34002046FFF7A1FF4FF4FA60FEF70FFD204692
:102A440015227E21FFF798FF4FF4FA60BDE810408D
:102A5400FEF704BD30B595B00022274B0192196CE6
:102A640041F0805119641B6C244903F08053019395
:102A7400019B02920B6823F4404343F400430B6030
:102A84000B680F9203F440430293029B01230B93C0
:102A940010230C9310934FF4A8730224119304256C
:102AA400072308A808940E9412951393FFF70EF8C1
:102AB40000B1FEE70F23039305904FF48053079072
:102AC400214603A804940693FFF7B0F9044600B125
:102AD400FEE7FFF745FA4FF47A73B0FBF3F0FEF725
:102AE40023FD2846FEF736FD224621464FF0FF30EF
:102AF400FEF7DAFC15B030BD00380240007000402B
:102B04002DE9F04796B00025AE4CAF4EFEF788FC99
:102B1400FFF7A0FF0395236B43F004032363236BA8
:102B240003F004030393039B0495236B43F0010315
:102B34002363236B03F001030493049B0595236B28
:102B440043F002032363236B03F0020305932A4635
:102B54004FF4E4613046059BFEF744FF2A464FF4E8
:102B640040719A48FEF73EFF4FF400530C930CA9B2
:102B7400974B96480D930E95FEF75EFE4FF4E46373
:102B840001270C930CA9022330460D970F930E9541
:102B9400FEF752FE4FF400430CA98E480C930D959A
:102BA4000E95FEF749FEC0230CA988480C930D9599
:102BB4000E95FEF741FE4FF440730CA983480C9325
:102BC4000D970E950F95FEF737FE0195236B43F491
:102BD40000132363236B03F400130193019B0295F9
:102BE400236B43F480032363236B7B4C03F4800344
:102BF4002A46294602930E20029BFEF755FC0E201E
:102C0400FEF786FC2A4629460F20FEF74DFC0F20CE
:102C1400FEF77EFC2A4629463820FEF745FC38207C
:102C2400FEF776FC2A4629463B20FEF73DFC3B2076
:102C3400FEF76EFC694BA5604FF482794FF4007780
:102C44004FF0180A4FF00A08204684E80802E560AD
:102C540025616561A761C4F81CA025626562A5624F
:102C6400C4F82C80FFF7F9F900B1FEE704F1580528
:102C74005B4B20666066A066E066A067E067C4F808
:102C840080002846A365C4F85C902767C4F874A044
:102C9400C4F88480FFF7E1F900B1FEE7C4F8DC80F2
:102CA40004F1B0084F4BC4F8B800C4F8BC00C4F831
:102CB400C000C4F8C400C4F8CC00C4F8D000C4F800
:102CC400D400C4F8D8004046C4F8B030C4F8B49076
:102CD400C4F8C870FFF7C1F900B1FEE7424BC4F86D
:102CE4000831424BC4F80C31C4F81001C4F8140183
:102CF4004FF48043C4F81C01C4F82001C4F8240133
:102D0400C4F8280104F58470C4F81831FEF770FE85
:102D140000B1FEE7364BC4F864014FF4E13AC4F85D
:102D24006801C4F86C014FF00C09C4F87401C4F8CC
:102D3400780104F5AE70C4F85C31C4F860A1C4F83D
:102D44007091FFF7A3FD00B1FEE72A4BC4F8A4017C
:102D5400C4F8A801C4F8AC01C4F8B401C4F8B801BB
:102D640004F5CE70C4F89C31C4F8A0A1C4F8B091A5
:102D7400FFF78CFD00B1FEE706A80695ADF81C70C0
:102D84000896FFF73AFE4FF4806309A8CDF8248033
:102D9400ADF828300B96FFF7C1FD1F223F2109A88B
:102DA400FFF7A2FD282200210CA800F08FFA09A841
:102DB40006230CAA0821FFF7BCFD0A20FEF74EFBF0
:102DC400F0E700BF00380240000002400008024063
:102DD40000002110000402408C000020003001405B
:102DE40000380040003C004000540040A086010030
:102DF4000044004000140140FEE7000013B5224BDC
:102E0400002400945A6C42F480425A645A6C02F4CE
:102E140080420092009A01941A6C42F080521A6423
:102E24001B6C03F0805301930720019BFEF72AFBE0
:102E3400224621466FF00B00FEF736FB2246214660
:102E44006FF00A00FEF730FB224621466FF00900BE
:102E5400FEF72AFB224621466FF00400FEF724FB0E
:102E6400224621466FF00300FEF71EFB2246214650
:102E74006FF00100FEF718FB224621464FF0FF30A9
:102E8400FEF712FB02B010BD003802407FB50268A5
:102E9400104B9A421AD1C0230193122302930123A7
:102EA40003930323049304230DEB03010A480593BE
:102EB400FEF7C2FC00230093084B1A6C42F4001284
:102EC4001A641B6C03F400130093009B07B05DF8B5
:102ED40004FB00BF005400400004024000380240DC
:102EE4002DE9F0430368754A934289B005465ED1E3
:102EF4000026734B00965A6C724842F480525A640E
:102F04005B6C059603F4805300930524009B07949F
:102F1400C0234FF00208032703A90393CDF81080C0
:102F24000697FEF789FC08236748039303A90794CF
:102F3400CDF81080654C05960697FEF77DFC644B32
:102F4400A6604FF0C06984E8080220464FF480630D
:102F5400E66023616661A661E66126626662FEF749
:102F640021FB18B1BB215B48FFF746FF5A4BEC64C9
:102F7400A5635A4C4FF0C0684FF0400C84E8081128
:102F84004FF4806200232046E36022616361A36101
:102F9400E36123626362FEF705FB18B1CD214D485E
:102FA400FFF72AFFAC64A56309B0BDE8F0834C4A7F
:102FB400934264D10026424B01961A6C494842F46C
:102FC40080421A641B6C059603F480430193019BB1
:102FD4000C230DEB030105244FF002094FF0030805
:102FE400039307944FF48067CDF81090CDF81880C0
:102FF400FEF722FC079434483B4C039703A9CDF811
:1030040010900596CDF81880FEF716FC374BA66095
:10301400204684E84800E66027616661A661E661AF
:1030240026626662FEF7BEFA18B1FF212948FFF74F
:10303400E3FEEC64A5632E4C2E4B23604022002358
:10304400A26020464FF480626360E36022616361A2
:10305400A361E36123626362FEF7A4FA20B140F244
:1030640011111C48FFF7C8FE0022AC64114624204D
:10307400A563FEF719FA2420FEF74AFA94E71E4ADC
:10308400934291D100210E4B02911A6C154842F4DF
:1030940000421A641B6C059103F400430293029BE3
:1030A4004FF4E0530393022304930323069303A9E9
:1030B40006230793FEF7C0FB76E700BF003001400C
:1030C400003802400000024000040240880300204F
:1030D40010640240D03300085864024028030020E2
:1030E4000038004000080240C80200205860024036
:1030F4006802002070600240003C004000B5036894
:103104001D4A934289B01CD1002301931B4B1A6CB6
:1031140042F400321A641B6C03F400330193019BE4
:103124000C2303930223049301230593032306939F
:10313400072303A912480793FEF77EFB09B05DF845
:1031440004FB104A9342F9D1002302930B4B5A6CAF
:1031540042F020025A645B6C03F020030293029B4A
:103164004FF4C053039302230493012305930323D1
:1031740006930823DDE700BF004400400038024006
:1031840000000240001401407047FEE7FEE7FEE73E
:10319400FEE770477047704708B5FEF74DF9BDE884
:1031A4000840FEF7E4B900000148FEF78BBA00BFFF
:1031B400C80200200148FEF785BA00BF680200205B
:1031C4000148FFF7CDB900BFE40000200148FEF735
:1031D40079BA00BF880300200148FEF773BA00BF24
:1031E400280300200F49D1F8883043F47003C1F854
:1031F40088300D4B1A68002042F001021A60986072
:103204001A6822F0847222F480321A60074A5A60E3
:103214001A6822F480221A60D8604FF000638B6031
:10322400704700BF00ED00E0003802401030002479
:10323400DFF834D0002103E00C4B5B5843500431D9
:103244000B480C4B42189A42F6D30B4A02E0002377
:1032540042F8043B094B9A42F9D3FFF7C3FF00F04D
:1032640011F8FFF74DFC704700800120303500084D
:10327400000000207000002070000020F0030020F7
:10328400FEE7000070B50D4E0D4CA41BA4100025E4
:10329400A54209D10B4E0C4C00F088F8A41BA410D5
:1032A4000025A54205D170BD56F825309847013553
:1032B400EEE756F8253098470135F2E7283500083F
:1032C40028350008283500082C3500080244034638
:1032D400934200D1704703F8011BF9E708B50620B3
:1032E40000F036F8012000F05FF810B5431E0A44E0
:1032F400914200D110BD11F8014B03F8014FF7E7DB
:103304001F2938B504460D4604D9162303604FF02F
:10331400FF3038BD426C12B152F821304BB920460F
:1033240000F030F82A4601462046BDE8384000F057
:1033340017B8012B0AD0591C03D1162303600120AE
:1033440038BD002442F8254028469847002038BD5F
:10335400024B01461868FFF7D3BF00BF0C000020E2
:1033640038B5074C0023054608461146236000F093
:1033740013F8431C02D1236803B12B6038BD00BF8E
:10338400EC03002000F000B8024B58221A604FF002
:10339400FF307047EC030020024B58221A604FF0B4
:1033A400FF307047EC030020FEE70000F8B500BFD3
:1033B400F8BC08BC9E467047F8B500BFF8BC08BC12
:0433C4009E4670476A
:1033C80000061016000610162E2E5C5372635C73EE
:1033D800746D3332663478785F68616C5F6D7370D2
:1033E8002E63000000000000000000010203040634
:0C33F800070809000000000102030400A7
:1034040008B10181B0B000840000000008B101815E
:10341400B0B000840000000008B10181B0B00084A5
:0434240000000000A4
:10342800DCCDFF7F010000004CD1FF7FB0A90280F6
:10343800E4D1FF7FB0B0A88034D2FF7F0100000044
:1034480040D2FF7FB0B0AA8078D2FF7FAE71B28041
:1034580048D3FF7F0100000044D3FF7FAB3F388093
:103468009CD3FF7F01000000A8D3FF7FB0B0AA80E3
:10347800E4D3FF7F0100000098D4FF7FAB0EB28039
:1034880000D5FF7FB0AF0A80C8D7FF7F01000000DA
:10349800CCD7FF7FAB3F04800CDAFF7F0100000030
:1034A800E8DBFF7F00840480FCDBFF7F0100000075
:1034B800F8DBFF7FB0AD0480C0DEFF7FB0A80380DB
:1034C800E0DEFF7F44FFFF7FE4DEFF7F48FFFF7FF2
:1034D800F0DEFF7F010000000CF4FF7FB0A8018040
:1034E80038F4FF7F18FFFF7F46F4FF7FB0AB028000
:1034F80084F4FF7FB0A80180AEF4FF7FB0A90280FA
:10350800F6F4FF7FB0B0A88048F5FF7FB0A914801B
:10351800ECF5FF7FB0AE1580DCF8FF7F01000000FE
:04352800B9010008DD
:04352C0095010008FD
:1035300001000000100000000024F4001000002032
:10354000000000000000000000000000000000007B
:10355000000000000000000000000000000000006B
:10356000000000000000000000000000000000005B
:10357000000000000000000000000000000000004B
:10358000000000000000000000000000000000003B
:10359000000000000000000000000000000000002B
:040000050800323588
:00000001FF
